:020000040000FA
:0400000086EF2DF06A
:105A200094908290120096908490120094908280BC
:105A30001200969084801200010E946E82941200DF
:105A4000016E01C083FF1200010E946E8284120069
:105A5000070E93160F0E9512120056C001F057C094
:105A600002F01200000E016E012A180E01643BEFD5
:105A70002DF03DEF2DF034EF2DF01200000E026EF0
:105A800032EC2DF0022A310E026449EF2DF04BEF7B
:105A90002DF040EF2DF01200001F101017171717F0
:105AA000001D040514151415171717171717101FC5
:105AB000141514151415041D066E8482065020EC6E
:105AC0002DF08494000E026E030E016EA1EC2DF0F9
:105AD0008492000E026E030E016EA1EC2DF0848202
:105AE0001200066E8482065020EC2DF08484000E95
:105AF000026E030E016EA1EC2DF08492000E026E78
:105B0000030E016EA1EC2DF084821200980EF66E49
:105B10005A0EF76E000EF86E00EE32F010EE20F026
:105B20000900F5CFEEFFE550E150FAE100EE52F04A
:105B30000D0EEE6AE806FDE1000EF86E0001F8EFCA
:105B400032F0000E046E000E036EB4EF2DF0000E66
:105B5000056E052AC70E0564B0EF2DF0B2EF2DF0EB
:105B6000A9EF2DF0034A042A0150035C02500458A7
:105B7000D8A0BDEF2DF0BFEF2DF0A7EF2DF0120054
:105B8000000E0B6ED3EF2DF00B500724096E000EA4
:105B900008200A6E09C0F6FF0AC0F7FF0800F5509A
:105BA00071EC2DF00B2A0B500724096E000E082013
:105BB0000A6E09C0F6FF0AC0F7FF0800F550000999
:105BC000D8A4E5EF2DF0E7EF2DF0C4EF2DF0120093
:105BD000000E026E020E016E000E046E000E036EC9
:105BE000AAEC30F0000E026E030E016E000E046E81
:105BF000000E036EAAEC30F0000E026E040E016E71
:105C0000000E046E000E036EAAEC30F0000E026E61
:105C1000050E016E000E046E000E036EAAEC30F04D
:105C20001200076E83CF08F0000E956E000E026E14
:105C3000220E016E000E046E010E036EAAEC30F00F
:105C400007C083FF000E026E210E016E000E046E6F
:105C5000010E036EAAEC30F0000E026E210E016EF2
:105C6000000E046E000E036EAAEC30F008C083FF35
:105C700032EC2DF01200000E026E020E016E000ECC
:105C8000046E000E036ED1EC31F0000E026E030EB6
:105C9000016E000E046E000E036ED1EC31F0000EAA
:105CA000026E040E016E000E046E000E036ED1EC47
:105CB00031F0000E026E050E016E000E046E000E35
:105CC000036ED1EC31F0000E956E1200026E0150A1
:105CD000D8A46DEF2EF06FEF2EF071EF2EF002C012
:105CE0005BF00104D8A477EF2EF079EF2EF07BEF74
:105CF0002EF002C05AF0020E0118D8A482EF2EF046
:105D000084EF2EF086EF2EF002C059F0030E01183A
:105D1000D8A48DEF2EF08FEF2EF091EF2EF002C071
:105D200058F012000A6E0A50D8A499EF2EF09BEF9B
:105D30002EF0A0EF2EF009500F0B800F06EC2FF085
:105D40000A04D8A4A6EF2EF0A8EF2EF0ADEF2EF0A7
:105D500009500F0BC00F06EC2FF0020E0A18D8A442
:105D6000B4EF2EF0B6EF2EF0BBEF2EF009500F0B74
:105D7000900F06EC2FF0030E0A18D8A4C2EF2EF0F5
:105D8000C4EF2EF0C9EF2EF009500F0BD00F06EC28
:105D90002FF01200000E026E220E016E000E046E35
:105DA000000E036ED1EC31F0000E026E210E016E7A
:105DB000000E046E000E036ED1EC31F0000E956EF5
:105DC0003EEC2DF03EEC2DF03EEC2DF03EEC2DF0B7
:105DD0003EEC2DF0380E06EC2FF03EEC2DF03EECB4
:105DE0002DF0380E06EC2FF03EEC2DF0380E06ECC0
:105DF0002FF0380E06EC2FF0060E06EC2FF00C0EEE
:105E000006EC2FF0010E06EC2FF01200086E83CF87
:105E100007F0000E956E000E026E220E016E000E4F
:105E2000046E000E036EAAEC30F008C083FF000E73
:105E3000026E210E016E000E046E010E036EAAECBE
:105E400030F0000E026E210E016E000E046E000E88
:105E5000036EAAEC30F007C083FF020E0818D8B416
:105E600034EF2FF036EF2FF03EEF2FF00804D8A4D8
:105E70003CEF2FF03EEF2FF042EF2FF03EEC2DF0F5
:105E800044EF2FF032EC2DF01200000E956E000E54
:105E9000026E020E016E000E046E000E036EAAEC7E
:105EA00030F0000E026E030E016E000E046E000E46
:105EB000036EAAEC30F0000E026E040E016E000EAE
:105EC000046E000E036EAAEC30F0000E026E050E9A
:105ED000016E000E046E000E036EAAEC30F0000E90
:105EE000836ECFEF2FF0E30E5B24F66EF76A7E0E23
:105EF000F7220800F5CF83FF000E026E020E016E3E
:105F0000000E046E010E036EAAEC30F0010E5C6E02
:105F1000ECEF2FF0E30E5A24F66EF76A7E0EF722AE
:105F20000800F5CF83FF000E026E030E016E000E17
:105F3000046E010E036EAAEC30F0020E5C6EECEF04
:105F40002FF0E30E5924F66EF76A7E0EF722080052
:105F5000F5CF83FF000E026E040E016E000E046E7C
:105F6000010E036EAAEC30F0030E5C6EECEF2FF026
:105F7000E30E5824F66EF76A7E0EF7220800F5CF7E
:105F800083FF000E026E050E016E000E046E010E00
:105F9000036EAAEC30F0000E5C6EECEF2FF05C505C
:105FA000076E086A0850000AD8B4D9EF2FF0CBEF7B
:105FB0002FF00750000AD8B473EF2FF0010AD8B4BD
:105FC0008AEF2FF0030AD8B4A1EF2FF0010AD8B45A
:105FD000B8EF2FF0CBEF2FF0120083CF06F00F0EAB
:105FE0009512000E0A6EF80E93160AC001F0010E0B
:105FF000026E012AFEEF2FF0D8900236012EFCEF40
:106000002FF002509312070E81120AC001F0010E08
:10601000026E012A0EEF30F0D8900236012E0CEFFE
:1060200030F00250FF0A8116000E086E000E076E57
:10603000074A082A08BE26EF30F0085009E10A0E88
:10604000075CD8A026EF30F028EF30F018EF30F0E2
:10605000000E096E09C001F0010E026E012A33EF35
:1060600030F0D8900236012E31EF30F00250831418
:106070000009D8A43EEF30F040EF30F058EF30F098
:106080000A50040DF3500924016E010E026E000E39
:10609000036E012A4FEF30F0D89002360336012EFE
:1060A0004CEF30F0025054120350551272EF30F0A2
:1060B0000A50040DF3500924016E010E026E000E09
:1060C000036E012A67EF30F0D89002360336012EB6
:1060D00064EF30F0021C046E031C056E045054166D
:1060E00005505516092A030E096479EF30F07BEF4D
:1060F00030F02AEF30F00A2A020E0A6482EF30F004
:1061000084EF30F0F3EF2FF05450521807E1555060
:106110005318D8A48EEF30F090EF30F093EF30F0BA
:106120005E0699EF30F00A0E5E6E54C052F055C014
:1061300053F05E50D8A49FEF30F0A1EF30F0A5EF00
:1061400030F052C056F053C057F006C083FF000E27
:10615000956E120002BEB8EF30F0025007E1080E53
:10616000015CD8B0B6EF30F0B8EF30F0E2EF30F0CD
:1061700003500410D8B4BFEF30F0C1EF30F0D1EFCE
:1061800030F001C005F0010E066E052ACAEF30F0AE
:10619000D8900636052EC8EF30F006508012D0EFAA
:1061A00031F001C005F0010E066E052ADAEF30F07D
:1061B000D8900636052ED8EF30F00650FF0A80162C
:1061C000D0EF31F002BEF0EF30F0025007E1100ED8
:1061D000015CD8B0EEEF30F0F0EF30F01EEF31F0B0
:1061E000F80E0126FF0E022203500410D8B4FBEF74
:1061F00030F0FDEF30F00DEF31F001C005F0010E91
:10620000066E052A06EF31F0D8900636052E04EF0B
:1062100031F006508112D0EF31F001C005F0010ECF
:10622000066E052A16EF31F0D8900636052E14EFCB
:1062300031F00650FF0A8116D0EF31F002BE2CEF8C
:1062400031F0025007E1180E015CD8B02AEF31F0AE
:106250002CEF31F05AEF31F0F00E0126FF0E022242
:1062600003500410D8B437EF31F039EF31F049EF73
:1062700031F001C005F0010E066E052A42EF31F043
:10628000D8900636052E40EF31F006508212D0EF3E
:1062900031F001C005F0010E066E052A52EF31F013
:1062A000D8900636052E50EF31F00650FF0A8216C0
:1062B000D0EF31F002BE68EF31F0025007E1200E5E
:1062C000015CD8B066EF31F068EF31F096EF31F055
:1062D000E80E0126FF0E022203500410D8B473EF1B
:1062E00031F075EF31F085EF31F001C005F0010EAE
:1062F000066E052A7EEF31F0D8900636052E7CEF2B
:1063000031F006508312D0EF31F001C005F0010EDC
:10631000066E052A8EEF31F0D8900636052E8CEFEA
:1063200031F00650FF0A8316D0EF31F002BEA4EF21
:1063300031F0025007E1280E015CD8B0A2EF31F035
:10634000A4EF31F0D0EF31F0E00E0126FF0E022273
:1063500003500410D8B4AFEF31F0B1EF31F0C1EF1A
:1063600031F001C005F0010E066E052ABAEF31F0DA
:10637000D8900636052EB8EF31F006508412D0EFD3
:1063800031F001C005F0010E066E052ACAEF31F0AA
:10639000D8900636052EC8EF31F00650FF0A841655
:1063A000120002BEDFEF31F0025007E1080E015C7F
:1063B000D8B0DDEF31F0DFEF31F009EF32F003500C
:1063C0000410D8B4E6EF31F0E8EF31F0F8EF31F037
:1063D00001C005F0010E066E052AF1EF31F0D890EC
:1063E0000636052EEFEF31F006509212F7EF32F03D
:1063F00001C005F0010E066E052A01EF32F0D890BB
:106400000636052EFFEF31F00650FF0A9216F7EF21
:1064100032F002BE17EF32F0025007E1100E015CBD
:10642000D8B015EF32F017EF32F045EF32F00350ED
:106430000410D8B41EEF32F020EF32F032EF32F019
:1064400001C005F0F80E0526010E066E052A2BEF99
:1064500032F0D8900636052E29EF32F0065093120E
:10646000F7EF32F001C005F0F80E0526010E066EBA
:10647000052A3DEF32F0D8900636052E3BEF32F07C
:106480000650FF0A9316F7EF32F002BE53EF32F0D8
:10649000025007E1180E015CD8B051EF32F053EF13
:1064A00032F081EF32F003500410D8B45AEF32F0DA
:1064B0005CEF32F06EEF32F001C005F0F00E052611
:1064C000010E066E052A67EF32F0D8900636052ECB
:1064D00065EF32F006509412F7EF32F001C005F08C
:1064E000F00E0526010E066E052A79EF32F0D890DF
:1064F0000636052E77EF32F00650FF0A9416F7EFB6
:1065000032F002BE8FEF32F0025007E1200E015C44
:10651000D8B08DEF32F08FEF32F0BDEF32F0035094
:106520000410D8B496EF32F098EF32F0AAEF32F0C0
:1065300001C005F0E80E0526010E066E052AA3EF40
:1065400032F0D8900636052EA1EF32F006509512A3
:10655000F7EF32F001C005F0E80E0526010E066ED9
:10656000052AB5EF32F0D8900636052EB3EF32F09B
:106570000650FF0A9516F7EF32F002BECBEF32F06D
:10658000025007E1280E015CD8B0C9EF32F0CBEF22
:1065900032F0F7EF32F003500410D8B4D2EF32F0FB
:1065A000D4EF32F0E6EF32F001C005F0E00E052640
:1065B000010E066E052ADFEF32F0D8900636052E62
:1065C000DDEF32F006509612F7EF32F001C005F021
:1065D000E00E0526010E066E052AF1EF32F0D89086
:1065E0000636052EEFEF32F00650FF0A961612001F
:1065F000000E316E100E306E000E2C6E000E2D6EE1
:1066000020EE32F010EE0CF01F0EDBCFE3FFE806B9
:10661000FCE2CAEC2EF028EC2DF03BEC2EF0400E04
:1066200006EC2FF0000E2F6E000E2E6E0C0E2E2498
:10663000D96E000E2F20DA6EDF5011EC2EF02E4AAC
:106640002F2A2F5009E1200E2E5CD8A02AEF33F01C
:106650002CEF33F016EF33F0000E096E000E92ECC3
:106660002EF0000E11EC2EF0010E11EC2EF0000EAB
:10667000096E010E92EC2EF0020E11EC2EF0030EBC
:1066800011EC2EF0040E096E000E92EC2EF07B0E33
:10669000076E7F0E086EC0EC2DF0040E096E010E21
:1066A00092EC2EF0EF0E076E7F0E086EC0EC2DF010
:1066B000040E096E020E92EC2EF0910E076E7F0E04
:1066C000086EC0EC2DF0040E096E030E92EC2EF055
:1066D000E70E076E7F0E086EC0EC2DF0130E026EF3
:1066E000880E016EA1EC2DF0010E5CEC2DF0000E79
:1066F000096E000E92EC2EF0600E076E7F0E086E93
:10670000C0EC2DF0000E096E010E92EC2EF0CC0EB6
:10671000076E7F0E086EC0EC2DF0000E096E020EA3
:1067200092EC2EF0860E076E7F0E086EC0EC2DF0F8
:10673000130E026E880E016EA1EC2DF0010E5CECC2
:106740002DF0000E096E000E92EC2EF0B00E076ECA
:106750007F0E086EC0EC2DF0000E096E010E92EC5B
:106760002EF0DE0E076E7F0E086EC0EC2DF0000ED0
:10677000096E020E92EC2EF0C30E076E7F0E086EAD
:10678000C0EC2DF0000E096E030E92EC2EF0F70E09
:10679000076E7F0E086EC0EC2DF0EDEC2FF02DECA7
:1067A0002DF03050011809E131500218D8B4DBEF58
:1067B00033F0DDEF33F0CDEF33F02DEC2DF001C0F1
:1067C00030F002C031F030A6E8EF33F0EAEF33F0FA
:1067D000C6EF36F0010E5CEC2DF0000E096E000ED7
:1067E00092EC2EF0B30E076E7F0E086EC0EC2DF00B
:1067F000000E096E010E92EC2EF0260E076E7F0E33
:10680000086EC0EC2DF0000E096E020E92EC2EF018
:10681000F30E076E7E0E086EC0EC2DF0000E096EB2
:10682000030E92EC2EF0040E076E7F0E086EC0EC85
:106830002DF0EDEC2FF02DEC2DF03050011809E18A
:1068400031500218D8B427EF34F029EF34F019EFA3
:1068500034F02DEC2DF001C030F002C031F030A644
:1068600034EF34F036EF34F00CEF35F0010E5CEC21
:106870002DF0000E096E000E92EC2EF0520E076EF7
:106880007F0E086EC0EC2DF0000E096E010E92EC2A
:106890002EF0A60E076E7F0E086EC0EC2DF024ECD5
:1068A0002DF0130E026E880E016EA1EC2DF01CEC83
:1068B0002DF0010E5CEC2DF0000E096E000E92EC36
:1068C0002EF0150E076E7F0E086EC0EC2DF0000E38
:1068D000096E020E92EC2EF0BA0E076E7F0E086E55
:1068E000C0EC2DF03BEC2EF0000E2F6E000E2E6E45
:1068F000020E016E000E66EC2EF0030E016E070E06
:1069000066EC2EF045EC2FF0000E026E020E016ECA
:10691000A1EC2DF02E4A2F2AB80E2E5C0B0E2F580C
:10692000D8A095EF34F097EF34F078EF34F0E8EC3E
:106930002DF0EDEC2FF02DEC2DF03050011809E189
:1069400031500218D8B4A7EF34F0A9EF34F099EF22
:1069500034F02DEC2DF001C030F002C031F030A841
:10696000B4EF34F0B6EF34F099EF34F0010E5CEC94
:106970002DF0000E096E000E92EC2EF0440E076E04
:106980007F0E086EC0EC2DF0130E026E880E016EA5
:10699000A1EC2DF0010E5CEC2DF0000E096E000E46
:1069A00092EC2EF09C0E076E7F0E086EC0EC2DF060
:1069B00016EC2DF019EC2DF0130E026E880E016E00
:1069C000A1EC2DF010EC2DF013EC2DF0010E5CEC91
:1069D0002DF0000E096E000E92EC2EF0360E076EB2
:1069E0007F0E086EC0EC2DF0000E096E020E92ECC8
:1069F0002EF06E0E076E7F0E086EC0EC2DF0000EAE
:106A0000096E030E92EC2EF0D50E076E7F0E086E07
:106A1000C0EC2DF099EF34F030AE11EF35F013EFFC
:106A200035F0E9EF35F0010E5CEC2DF0000E096E4B
:106A3000000E92EC2EF0520E076E7F0E086EC0EC28
:106A40002DF0000E096E010E92EC2EF0A60E076ED0
:106A50007F0E086EC0EC2DF024EC2DF0130E026EAC
:106A6000880E016EA1EC2DF01CEC2DF0010E5CECFB
:106A70002DF0000E096E000E92EC2EF0150E076E32
:106A80007F0E086EC0EC2DF0000E096E020E92EC27
:106A90002EF0BA0E076E7F0E086EC0EC2DF03BECA8
:106AA0002EF0000E2F6E000E2E6E020E016E010EE5
:106AB00066EC2EF0030E016E000E66EC2EF045EC37
:106AC0002FF0000E026E020E016EA1EC2DF02E4A88
:106AD0002F2AB80E2E5C0B0E2F58D8A072EF35F06F
:106AE00074EF35F055EF35F0E8EC2DF0EDEC2FF0CC
:106AF0002DEC2DF03050011809E131500218D8B4B6
:106B000084EF35F086EF35F076EF35F02DEC2DF093
:106B100001C030F002C031F030A891EF35F093EFB2
:106B200035F076EF35F0010E5CEC2DF0000E096EBD
:106B3000000E92EC2EF0440E076E7F0E086EC0EC35
:106B40002DF0130E026E880E016EA1EC2DF0010ED9
:106B50005CEC2DF0000E096E000E92EC2EF09C0EF7
:106B6000076E7F0E086EC0EC2DF016EC2DF019ECC0
:106B70002DF0130E026E880E016EA1EC2DF010ECBC
:106B80002DF013EC2DF0010E5CEC2DF0000E096ED3
:106B9000000E92EC2EF0360E076E7F0E086EC0ECE3
:106BA0002DF0000E096E020E92EC2EF06E0E076EA6
:106BB0007F0E086EC0EC2DF0000E096E030E92ECF5
:106BC0002EF0D50E076E7F0E086EC0EC2DF076EF1E
:106BD00035F031A6EEEF35F0F0EF35F019EF34F087
:106BE000010E5CEC2DF0000E096E000E92EC2EF002
:106BF000520E076E7F0E086EC0EC2DF0000E096E6F
:106C0000010E92EC2EF0A60E076E7F0E086EC0EC01
:106C10002DF024EC2DF0130E026E880E016EA1EC07
:106C20002DF01CEC2DF0010E5CEC2DF0000E096E29
:106C3000000E92EC2EF0150E076E7F0E086EC0EC63
:106C40002DF0000E096E020E92EC2EF0BA0E076EB9
:106C50007F0E086EC0EC2DF03BEC2EF0000E2F6E78
:106C6000000E2E6E020E016E010E66EC2EF0030E6B
:106C7000016E020E66EC2EF045EC2FF0000E026E57
:106C8000020E016EA1EC2DF02E4A2F2AB80E2E5CBA
:106C90000B0E2F58D8A04FEF36F051EF36F032EFF1
:106CA00036F0E8EC2DF0EDEC2FF02DEC2DF030501F
:106CB000011809E131500218D8B461EF36F063EFE2
:106CC00036F053EF36F02DEC2DF001C030F002C05D
:106CD00031F030A86EEF36F070EF36F053EF36F04B
:106CE000010E5CEC2DF0000E096E000E92EC2EF001
:106CF000440E076E7F0E086EC0EC2DF0130E026E70
:106D0000880E016EA1EC2DF0010E5CEC2DF0000E52
:106D1000096E000E92EC2EF09C0E076E7F0E086E30
:106D2000C0EC2DF016EC2DF019EC2DF0130E026EC8
:106D3000880E016EA1EC2DF010EC2DF013EC2DF06F
:106D4000010E5CEC2DF0000E096E000E92EC2EF0A0
:106D5000360E076E7F0E086EC0EC2DF0000E096E29
:106D6000020E92EC2EF06E0E076E7F0E086EC0ECD7
:106D70002DF0000E096E030E92EC2EF0D50E076E6C
:106D80007F0E086EC0EC2DF053EF36F030AECBEF37
:106D900036F0CDEF36F0A9EF39F0010E5CEC2DF0B6
:106DA000000E096E000E92EC2EF0E10E076E7F0EC3
:106DB000086EC0EC2DF0000E096E010E92EC2EF064
:106DC000260E076E7F0E086EC0EC2DF0000E096EC9
:106DD000020E92EC2EF0F30E076E7E0E086EC0ECE3
:106DE0002DF0000E096E030E92EC2EF0040E076ECD
:106DF0007F0E086EC0EC2DF0EDEC2FF02DEC2DF099
:106E00003050011809E131500218D8B40AEF37F0B8
:106E10000CEF37F0FCEF36F02DEC2DF001C030F028
:106E200002C031F030A617EF37F019EF37F0EFEF6F
:106E300037F0010E5CEC2DF0000E096E000E92ECA6
:106E40002EF0520E076E7F0E086EC0EC2DF0000E75
:106E5000096E010E92EC2EF0A60E076E7F0E086EE4
:106E6000C0EC2DF024EC2DF0130E026E880E016E96
:106E7000A1EC2DF01CEC2DF0010E5CEC2DF0000EC1
:106E8000096E000E92EC2EF0150E076E7F0E086E46
:106E9000C0EC2DF0000E096E020E92EC2EF0BA0E30
:106EA000076E7F0E086EC0EC2DF03BEC2EF0000E4E
:106EB0002F6E000E2E6E020E016E000E66EC2EF08E
:106EC000030E016E070E66EC2EF045EC2FF0000E5F
:106ED000026E020E016EA1EC2DF02E4A2F2AB80E82
:106EE0002E5C0B0E2F58D8A078EF37F07AEF37F0E2
:106EF0005BEF37F0E8EC2DF0EDEC2FF02DEC2DF002
:106F00003050011809E131500218D8B48AEF37F037
:106F10008CEF37F07CEF37F02DEC2DF001C030F026
:106F200002C031F030A897EF37F099EF37F07CEFDF
:106F300037F0010E5CEC2DF0000E096E000E92ECA5
:106F40002EF0440E076E7F0E086EC0EC2DF0130E6F
:106F5000026E880E016EA1EC2DF0010E5CEC2DF09E
:106F6000000E096E000E92EC2EF09C0E076E7F0E46
:106F7000086EC0EC2DF016EC2DF019EC2DF0130E70
:106F8000026E880E016EA1EC2DF010EC2DF013ECCA
:106F90002DF0010E5CEC2DF0000E096E000E92EC4F
:106FA0002EF0360E076E7F0E086EC0EC2DF0000E30
:106FB000096E020E92EC2EF06E0E076E7F0E086EBA
:106FC000C0EC2DF0000E096E030E92EC2EF0D50EE3
:106FD000076E7F0E086EC0EC2DF07CEF37F030AE00
:106FE000F4EF37F0F6EF37F0CCEF38F0010E5CEC51
:106FF0002DF0000E096E000E92EC2EF0520E076E70
:107000007F0E086EC0EC2DF0000E096E010E92ECA2
:107010002EF0A60E076E7F0E086EC0EC2DF024EC4D
:107020002DF0130E026E880E016EA1EC2DF01CECFB
:107030002DF0010E5CEC2DF0000E096E000E92ECAE
:107040002EF0150E076E7F0E086EC0EC2DF0000EB0
:10705000096E020E92EC2EF0BA0E076E7F0E086ECD
:10706000C0EC2DF03BEC2EF0000E2F6E000E2E6EBD
:10707000020E016E010E66EC2EF0030E016E000E84
:1070800066EC2EF045EC2FF0000E026E020E016E43
:10709000A1EC2DF02E4A2F2AB80E2E5C0B0E2F5885
:1070A000D8A055EF38F057EF38F038EF38F0E8EC6B
:1070B0002DF0EDEC2FF02DEC2DF03050011809E102
:1070C00031500218D8B467EF38F069EF38F059EF53
:1070D00038F02DEC2DF001C030F002C031F030A8B6
:1070E00074EF38F076EF38F059EF38F0010E5CECC1
:1070F0002DF0000E096E000E92EC2EF0440E076E7D
:107100007F0E086EC0EC2DF0130E026E880E016E1D
:10711000A1EC2DF0010E5CEC2DF0000E096E000EBE
:1071200092EC2EF09C0E076E7F0E086EC0EC2DF0D8
:1071300016EC2DF019EC2DF0130E026E880E016E78
:10714000A1EC2DF010EC2DF013EC2DF0010E5CEC09
:107150002DF0000E096E000E92EC2EF0360E076E2A
:107160007F0E086EC0EC2DF0000E096E020E92EC40
:107170002EF06E0E076E7F0E086EC0EC2DF0000E26
:10718000096E030E92EC2EF0D50E076E7F0E086E80
:10719000C0EC2DF059EF38F031A6D1EF38F0D3EF35
:1071A00038F0FCEF36F0010E5CEC2DF0000E096EAD
:1071B000000E92EC2EF0520E076E7F0E086EC0ECA1
:1071C0002DF0000E096E010E92EC2EF0A60E076E49
:1071D0007F0E086EC0EC2DF024EC2DF0130E026E25
:1071E000880E016EA1EC2DF01CEC2DF0010E5CEC74
:1071F0002DF0000E096E000E92EC2EF0150E076EAB
:107200007F0E086EC0EC2DF0000E096E020E92EC9F
:107210002EF0BA0E076E7F0E086EC0EC2DF03BEC20
:107220002EF0000E2F6E000E2E6E020E016E010E5D
:1072300066EC2EF0030E016E020E66EC2EF045ECAD
:107240002FF0000E026E020E016EA1EC2DF02E4A00
:107250002F2AB80E2E5C0B0E2F58D8A032EF39F023
:1072600034EF39F015EF39F0E8EC2DF0EDEC2FF0BC
:107270002DEC2DF03050011809E131500218D8B42E
:1072800044EF39F046EF39F036EF39F02DEC2DF0C0
:1072900001C030F002C031F030A851EF39F053EFA7
:1072A00039F036EF39F0010E5CEC2DF0000E096E6E
:1072B000000E92EC2EF0440E076E7F0E086EC0ECAE
:1072C0002DF0130E026E880E016EA1EC2DF0010E52
:1072D0005CEC2DF0000E096E000E92EC2EF09C0E70
:1072E000076E7F0E086EC0EC2DF016EC2DF019EC39
:1072F0002DF0130E026E880E016EA1EC2DF010EC35
:107300002DF013EC2DF0010E5CEC2DF0000E096E4B
:10731000000E92EC2EF0360E076E7F0E086EC0EC5B
:107320002DF0000E096E020E92EC2EF06E0E076E1E
:107330007F0E086EC0EC2DF0000E096E030E92EC6D
:107340002EF0D50E076E7F0E086EC0EC2DF036EFD6
:1073500039F031A6AEEF39F0B0EF39F08CEF3CF0F8
:10736000010E5CEC2DF0000E096E000E92EC2EF07A
:10737000C60E076E7F0E086EC0EC2DF0000E096E73
:10738000010E92EC2EF0260E076E7F0E086EC0ECFA
:107390002DF0000E096E020E92EC2EF0F30E076E29
:1073A0007E0E086EC0EC2DF0000E096E030E92ECFE
:1073B0002EF0040E076E7F0E086EC0EC2DF0EDEC83
:1073C0002FF02DEC2DF03050011809E1315002184A
:1073D000D8B4EDEF39F0EFEF39F0DFEF39F02DEC05
:1073E0002DF001C030F002C031F030A6FAEF39F0D4
:1073F000FCEF39F0D2EF3AF0010E5CEC2DF0000E0C
:10740000096E000E92EC2EF0520E076E7F0E086E83
:10741000C0EC2DF0000E096E010E92EC2EF0A60EBF
:10742000076E7F0E086EC0EC2DF024EC2DF0130ECD
:10743000026E880E016EA1EC2DF01CEC2DF0010EF9
:107440005CEC2DF0000E096E000E92EC2EF0150E85
:10745000076E7F0E086EC0EC2DF0000E096E020E56
:1074600092EC2EF0BA0E076E7F0E086EC0EC2DF077
:107470003BEC2EF0000E2F6E000E2E6E020E016EF3
:10748000000E66EC2EF0030E016E070E66EC2EF079
:1074900045EC2FF0000E026E020E016EA1EC2DF0F5
:1074A0002E4A2F2AB80E2E5C0B0E2F58D8A05BEF59
:1074B0003AF05DEF3AF03EEF3AF0E8EC2DF0EDEC0B
:1074C0002FF02DEC2DF03050011809E13150021849
:1074D000D8B46DEF3AF06FEF3AF05FEF3AF02DEC81
:1074E0002DF001C030F002C031F030A87AEF3AF050
:1074F0007CEF3AF05FEF3AF0010E5CEC2DF0000EFD
:10750000096E000E92EC2EF0440E076E7F0E086E90
:10751000C0EC2DF0130E026E880E016EA1EC2DF062
:10752000010E5CEC2DF0000E096E000E92EC2EF0B8
:107530009C0E076E7F0E086EC0EC2DF016EC2DF041
:1075400019EC2DF0130E026E880E016EA1EC2DF0D9
:1075500010EC2DF013EC2DF0010E5CEC2DF0000E74
:10756000096E000E92EC2EF0360E076E7F0E086E3E
:10757000C0EC2DF0000E096E020E92EC2EF06E0E95
:10758000076E7F0E086EC0EC2DF0000E096E030E24
:1075900092EC2EF0D50E076E7F0E086EC0EC2DF02B
:1075A0005FEF3AF030AED7EF3AF0D9EF3AF0AFEF05
:1075B0003BF0010E5CEC2DF0000E096E000E92EC1B
:1075C0002EF0520E076E7F0E086EC0EC2DF0000EEE
:1075D000096E010E92EC2EF0A60E076E7F0E086E5D
:1075E000C0EC2DF024EC2DF0130E026E880E016E0F
:1075F000A1EC2DF01CEC2DF0010E5CEC2DF0000E3A
:10760000096E000E92EC2EF0150E076E7F0E086EBE
:10761000C0EC2DF0000E096E020E92EC2EF0BA0EA8
:10762000076E7F0E086EC0EC2DF03BEC2EF0000EC6
:107630002F6E000E2E6E020E016E010E66EC2EF005
:10764000030E016E000E66EC2EF045EC2FF0000EDE
:10765000026E020E016EA1EC2DF02E4A2F2AB80EFA
:107660002E5C0B0E2F58D8A038EF3BF03AEF3BF0D2
:107670001BEF3BF0E8EC2DF0EDEC2FF02DEC2DF0B6
:107680003050011809E131500218D8B44AEF3BF0EC
:107690004CEF3BF03CEF3BF02DEC2DF001C030F017
:1076A00002C031F030A857EF3BF059EF3BF03CEF10
:1076B0003BF0010E5CEC2DF0000E096E000E92EC1A
:1076C0002EF0440E076E7F0E086EC0EC2DF0130EE8
:1076D000026E880E016EA1EC2DF0010E5CEC2DF017
:1076E000000E096E000E92EC2EF09C0E076E7F0EBF
:1076F000086EC0EC2DF016EC2DF019EC2DF0130EE9
:10770000026E880E016EA1EC2DF010EC2DF013EC42
:107710002DF0010E5CEC2DF0000E096E000E92ECC7
:107720002EF0360E076E7F0E086EC0EC2DF0000EA8
:10773000096E020E92EC2EF06E0E076E7F0E086E32
:10774000C0EC2DF0000E096E030E92EC2EF0D50E5B
:10775000076E7F0E086EC0EC2DF03CEF3BF031A6BB
:10776000B4EF3BF0B6EF3BF0DFEF39F0010E5CEC2D
:107770002DF0000E096E000E92EC2EF0520E076EE8
:107780007F0E086EC0EC2DF0000E096E010E92EC1B
:107790002EF0A60E076E7F0E086EC0EC2DF024ECC6
:1077A0002DF0130E026E880E016EA1EC2DF01CEC74
:1077B0002DF0010E5CEC2DF0000E096E000E92EC27
:1077C0002EF0150E076E7F0E086EC0EC2DF0000E29
:1077D000096E020E92EC2EF0BA0E076E7F0E086E46
:1077E000C0EC2DF03BEC2EF0000E2F6E000E2E6E36
:1077F000020E016E010E66EC2EF0030E016E020EFB
:1078000066EC2EF045EC2FF0000E026E020E016EBB
:10781000A1EC2DF02E4A2F2AB80E2E5C0B0E2F58FD
:10782000D8A015EF3CF017EF3CF0F8EF3BF0E8EC98
:107830002DF0EDEC2FF02DEC2DF03050011809E17A
:1078400031500218D8B427EF3CF029EF3CF019EF83
:107850003CF02DEC2DF001C030F002C031F030A82A
:1078600034EF3CF036EF3CF019EF3CF0010E5CECED
:107870002DF0000E096E000E92EC2EF0440E076EF5
:107880007F0E086EC0EC2DF0130E026E880E016E96
:10789000A1EC2DF0010E5CEC2DF0000E096E000E37
:1078A00092EC2EF09C0E076E7F0E086EC0EC2DF051
:1078B00016EC2DF019EC2DF0130E026E880E016EF1
:1078C000A1EC2DF010EC2DF013EC2DF0010E5CEC82
:1078D0002DF0000E096E000E92EC2EF0360E076EA3
:1078E0007F0E086EC0EC2DF0000E096E020E92ECB9
:1078F0002EF06E0E076E7F0E086EC0EC2DF0000E9F
:10790000096E030E92EC2EF0D50E076E7F0E086EF8
:10791000C0EC2DF019EF3CF030A491EF3CF093EF68
:107920003CF0CDEF33F0010E5CEC2DF0000E096E53
:10793000000E92EC2EF0FA0E076E7F0E086EC0EC71
:107940002DF0000E096E010E92EC2EF0260E076E41
:107950007F0E086EC0EC2DF0000E096E020E92EC48
:107960002EF0F30E076E7E0E086EC0EC2DF0000EAA
:10797000096E030E92EC2EF0040E076E7F0E086E59
:10798000C0EC2DF0EDEC2FF02DEC2DF03050011867
:1079900009E131500218D8B4D0EF3CF0D2EF3CF0FE
:1079A000C2EF3CF02DEC2DF001C030F002C031F000
:1079B00030A6DDEF3CF0DFEF3CF0B5EF3DF0010E1F
:1079C0005CEC2DF0000E096E000E92EC2EF0520EC3
:1079D000076E7F0E086EC0EC2DF0000E096E010ED2
:1079E00092EC2EF0A60E076E7F0E086EC0EC2DF006
:1079F00024EC2DF0130E026E880E016EA1EC2DF01A
:107A00001CEC2DF0010E5CEC2DF0000E096E000E4A
:107A100092EC2EF0150E076E7F0E086EC0EC2DF066
:107A2000000E096E020E92EC2EF0BA0E076E7F0E5B
:107A3000086EC0EC2DF03BEC2EF0000E2F6E000E09
:107A40002E6E020E016E000E66EC2EF0030E016E1D
:107A5000070E66EC2EF045EC2FF0000E026E020EC3
:107A6000016EA1EC2DF02E4A2F2AB80E2E5C0B0EC3
:107A70002F58D8A03EEF3DF040EF3DF021EF3DF014
:107A8000E8EC2DF0EDEC2FF02DEC2DF0305001183E
:107A900009E131500218D8B450EF3DF052EF3DF0FB
:107AA00042EF3DF02DEC2DF001C030F002C031F07E
:107AB00030A85DEF3DF05FEF3DF042EF3DF0010E8D
:107AC0005CEC2DF0000E096E000E92EC2EF0440ED0
:107AD000076E7F0E086EC0EC2DF0130E026E880E3E
:107AE000016EA1EC2DF0010E5CEC2DF0000E096E84
:107AF000000E92EC2EF09C0E076E7F0E086EC0EC0E
:107B00002DF016EC2DF019EC2DF0130E026E880EF0
:107B1000016EA1EC2DF010EC2DF013EC2DF0010E08
:107B20005CEC2DF0000E096E000E92EC2EF0360E7D
:107B3000076E7F0E086EC0EC2DF0000E096E020E6F
:107B400092EC2EF06E0E076E7F0E086EC0EC2DF0DC
:107B5000000E096E030E92EC2EF0D50E076E7F0E0E
:107B6000086EC0EC2DF042EF3DF030AEBAEF3DF0C4
:107B7000BCEF3DF092EF3EF0010E5CEC2DF0000EFC
:107B8000096E000E92EC2EF0520E076E7F0E086EFC
:107B9000C0EC2DF0000E096E010E92EC2EF0A60E38
:107BA000076E7F0E086EC0EC2DF024EC2DF0130E46
:107BB000026E880E016EA1EC2DF01CEC2DF0010E72
:107BC0005CEC2DF0000E096E000E92EC2EF0150EFE
:107BD000076E7F0E086EC0EC2DF0000E096E020ECF
:107BE00092EC2EF0BA0E076E7F0E086EC0EC2DF0F0
:107BF0003BEC2EF0000E2F6E000E2E6E020E016E6C
:107C0000010E66EC2EF0030E016E000E66EC2EF0F7
:107C100045EC2FF0000E026E020E016EA1EC2DF06D
:107C20002E4A2F2AB80E2E5C0B0E2F58D8A01BEF11
:107C30003EF01DEF3EF0FEEF3DF0E8EC2DF0EDECF8
:107C40002FF02DEC2DF03050011809E131500218C1
:107C5000D8B42DEF3EF02FEF3EF01FEF3EF02DECAD
:107C60002DF001C030F002C031F030A83AEF3EF004
:107C70003CEF3EF01FEF3EF0010E5CEC2DF0000EED
:107C8000096E000E92EC2EF0440E076E7F0E086E09
:107C9000C0EC2DF0130E026E880E016EA1EC2DF0DB
:107CA000010E5CEC2DF0000E096E000E92EC2EF031
:107CB0009C0E076E7F0E086EC0EC2DF016EC2DF0BA
:107CC00019EC2DF0130E026E880E016EA1EC2DF052
:107CD00010EC2DF013EC2DF0010E5CEC2DF0000EED
:107CE000096E000E92EC2EF0360E076E7F0E086EB7
:107CF000C0EC2DF0000E096E020E92EC2EF06E0E0E
:107D0000076E7F0E086EC0EC2DF0000E096E030E9C
:107D100092EC2EF0D50E076E7F0E086EC0EC2DF0A3
:107D20001FEF3EF030A497EF3EF099EF3EF0C2EF28
:107D30003CF0010E5CEC2DF0000E096E000E92EC92
:107D40002EF0520E076E7F0E086EC0EC2DF0000E66
:107D5000096E010E92EC2EF0A60E076E7F0E086ED5
:107D6000C0EC2DF024EC2DF0130E026E880E016E87
:107D7000A1EC2DF01CEC2DF0010E5CEC2DF0000EB2
:107D8000096E000E92EC2EF0150E076E7F0E086E37
:107D9000C0EC2DF0000E096E020E92EC2EF0BA0E21
:107DA000076E7F0E086EC0EC2DF03BEC2EF0000E3F
:107DB0002F6E000E2E6E020E016E010E66EC2EF07E
:107DC000030E016E020E66EC2EF045EC2FF0000E55
:107DD000026E020E016EA1EC2DF02E4A2F2AB80E73
:107DE0002E5C0B0E2F58D8A0F8EF3EF0FAEF3EF0C5
:107DF000DBEF3EF0E8EC2DF0EDEC2FF02DEC2DF06C
:107E00003050011809E131500218D8B40AEF3FF0A0
:107E10000CEF3FF0FCEF3EF02DEC2DF001C030F008
:107E200002C031F030A817EF3FF019EF3FF0FCEF40
:107E30003EF0010E5CEC2DF0000E096E000E92EC8F
:107E40002EF0440E076E7F0E086EC0EC2DF0130E60
:107E5000026E880E016EA1EC2DF0010E5CEC2DF08F
:107E6000000E096E000E92EC2EF09C0E076E7F0E37
:107E7000086EC0EC2DF016EC2DF019EC2DF0130E61
:107E8000026E880E016EA1EC2DF010EC2DF013ECBB
:107E90002DF0010E5CEC2DF0000E096E000E92EC40
:107EA0002EF0360E076E7F0E086EC0EC2DF0000E21
:107EB000096E020E92EC2EF06E0E076E7F0E086EAB
:107EC000C0EC2DF0000E096E030E92EC2EF0D50ED4
:107ED000076E7F0E086EC0EC2DF0FCEF3EF000EF59
:107EE00000F0003F065B4F666D7D077F6F777C3942
:107EF0005E7971322D203530306D6C20202020527B
:107F000024313000332D203730306D6C202020207C
:107F1000522431320056616C6F72206E6F2064699A
:107F200073706C617900312D203330306D6C2020FE
:107F3000202052243700566F6C74652073656D7075
:107F400072652100436172726567616E646F2E2EE7
:107F50002E0053657520636F706F20657374610028
:107F60004573636F6C686120656E747265004F7550
:107F700074726F2070656469646F00436572766522
:107F80006A617269610064652063657276656A6121
:107F9000004E617363696D656E746F004170726F3E
:107FA0007661646F2100656E6368656E646F2100A1
:107FB000312D2050696C73656E00302D2050616743
:107FC000617200332D204C616765720034206F7040
:107FD000636F6573006E6F20526573657400322D98
:107FE0002053746F75740050657265697261005238
:0F7FF0006F647269676F00342D20497061000063
:020000040020DA
:08000000FFFFFFFFFFFFFFFF00
:020000040030CA
:0E000000FF027100FF8380FF0FC00FE00F4072
:00000001FF
